:020000001628C0
:0E0006008312031326088A00250882000800D2
:1000140003208A110A128000840AA50A0319A60A79
:08002400F003031D0A28080087
:10002C0083120313A001A101A201A301A4010730B3
:10003C0083169F0003308500831285018316860189
:10004C0083128601831687010330831287000230E6
:10005C00A4000330A2000C3087000518DA2822080F
:10006C008600A20324183C2806123D2806162408F4
:10007C00023A031D43288616442886122408003AA7
:10008C00031D582803302202031858282308013A6C
:10009C00031D5228113087002308003A031D5828ED
:1000AC000A3087002208003A031D97282408003ADA
:1000BC00031D97282308003A031D79280130A4005A
:1000CC000530A2000B30FB002630FC005D30FD003B
:1000DC00FD0B6E28FC0B6E28FB0B6E28000000003D
:1000EC002130870091282308013A031D9128023002
:1000FC00A4000330A2000B30FB002630FC005D3066
:10010C00FD00FD0B8728FC0B8728FB0B87280000C4
:10011C0000000C30870023080130031D0030A300C1
:10012C00D9282208003A031DCB280B30FB002630BF
:10013C00FC005D30FD00FD0BA128FC0BA128FB0B86
:10014C00A1280000000086118619AE280611AF28E0
:10015C0006150619B3288610B42886148618B828F4
:10016C000610B92806140930A200A4030B30FB00BA
:10017C002630FC005D30FD00FD0BC228FC0BC228B4
:10018C00FB0BC22800000000D9280B30FB002630E6
:10019C00FC005D30FD00FD0BD128FC0BD128FB0BC6
:1001AC00D1280000000033280330A1000130A30047
:1001BC000130A000051C3A298601851CEC28230877
:1001CC000130031D0030A3000130A0002308013AC8
:1001DC00031D14292008013A031D1429143087002B
:1001EC000330A10001302102031C11290518FF283E
:1001FC001129210886000B30FB002630FC005D30F5
:10020C00FD00FD0B0729FC0B0729FB0B0729000040
:10021C000000A103F82821308700A0012308003A30
:10022C00031D39292008013A031D39292230870082
:10023C000330A10001302102031C3629210886005D
:10024C000B30FB002630FC005D30FD00FD0B2C2933
:10025C00FC0B2C29FB0B2C2900000000A1032029EE
:0C026C000C308700A001E0282D283B2961
:02400E004A2F37
:00000001FF
